:020000040800F2
:10000000680800203D450008954500089545000812
:10001000954500089545000895450008000000003A
:1000200000000000000000000000000095450008EE
:10003000954500080000000095450008954500081A
:100040009545000895450008954500089545000828
:100050009545000895450008954500089545000818
:100060009545000895450008954500089545000808
:1000700095450008954500089545000895450008F8
:1000800095450008954500089545000895450008E8
:1000900095450008954500089545000895450008D8
:1000A00095450008954500089545000895450008C8
:1000B00095450008914D0008F94C00089545000849
:1000C00095450008954500089545000895450008A8
:1000D0009545000895450008954500089545000898
:1000E000954500089545000895450008000000006A
:1000F0000000000000000000000000000000000000
:1001000000000000000000005FF808F180B500AFBB
:10011000154A154B1B6843F0010313601249124B3B
:100120005A68124B13404B600F4A0F4B1B6823F069
:10013000847323F4803313600B4A0B4B1B6823F446
:1001400080231360084A084B5B6823F4FE03536066
:10015000054B4FF41F029A6000F078F8044B4FF003
:1001600000629A6000BF80BD001002400000FFF8EE
:1001700000ED00E080B485B000AF0023FB600023F9
:10018000BB6000237B602C4B5B6803F00C03FB60BF
:10019000FB68042B07D0082B09D0002B33D1274B49
:1001A000274A1A6033E0254B254A1A602FE0224B7C
:1001B0005B6803F47013BB601F4B5B6803F4803310
:1001C0007B60BB689B0C0233BB607B68002B06D155
:1001D000BB681C4A02FB03F3184A136017E0164B76
:1001E0005B6803F40033002B06D0BB68154A02FBA2
:1001F00003F3124A13600AE0BB68114A02FB03F3DF
:100200000E4A136003E00D4B0D4A1A6000BF0A4B03
:100210005B6803F0F0031B090B4AD35CDBB2FB60A5
:10022000064B1A68FB6822FA03F3044A136000BF06
:100230001437BD4680BC704700100240000000200B
:1002400000127A0000093D000400002080B500AFD4
:1002500000F002F800BF80BD80B483B000AF00237F
:100260007B6000233B603A4A394B1B6843F4803380
:100270001360374B1B6803F400333B607B6801332A
:100280007B603B68002B03D17B68B3F5A06FF0D196
:100290002F4B1B6803F40033002B02D001233B607B
:1002A00001E000233B603B68012B4BD1294A294BDD
:1002B0001B6843F010031360264A264B1B6823F08B
:1002C00003031360234A234B1B6843F002031360AC
:1002D0001F4A1F4B5B6853601D4A1D4B5B68536090
:1002E0001B4A1B4B5B6843F480635360184A184BEE
:1002F0005B6823F47C135360154A154B5B6843F429
:10030000E8135360124A124B1B6843F0807313606A
:1003100000BF0F4B1B6803F00073002BF9D00C4A91
:100320000B4B5B6823F003035360094A084B5B687F
:1003300043F00203536000BF054B5B6803F00C03FE
:10034000082BF9D100BF0C37BD4680BC704700BFF9
:10035000001002400020024080B400AF134A134B4B
:100360001B6843F0010313601049104B5A68104B8F
:1003700013404B600D4A0D4B1B6823F0847323F42C
:1003800080331360094A094B1B6823F480231360F0
:10039000064A064B5B6823F4FE035360034B4FF49D
:1003A0001F029A6000BFBD4680BC7047001002402B
:1003B0000000FFF880B483B000AF7860134A134B9D
:1003C0001B6823F480331360104A104B1B6823F41E
:1003D000802313607B68B3F5803F03D0B3F5802F93
:1003E00007D00DE0094A094B1B6843F480331360C2
:1003F00006E0064A054B1B6843F4A023136000BFC8
:1004000000BF0C37BD4680BC704700BF00100240E3
:1004100080B582B000AF00233B600023FB71002356
:10042000BB71312000F00EFB0346BB713B6801330A
:100430003B603B68B3F5A06F02D0BB79002BF0D0D6
:10044000312000F0FFFA0346002B02D00123FB719C
:1004500001E00023FB71FB7918460837BD4680BDDB
:1004600080B485B000AF0346FB710023FB600A4BEC
:100470001B68FB60FB6823F0F803FB60FB79DB0083
:10048000FA681343FB60044AFB68136000BF14372B
:10049000BD4680BC704700BF0010024080B483B0EE
:1004A00000AF0346FB71044AFB79136000BF0C37B1
:1004B000BD4680BC704700BF0000424280B485B09A
:1004C00000AF786039600023FB600A4B5B68FB601B
:1004D000FB6823F47C13FB607A683B681343FA687B
:1004E0001343FB60034AFB68536000BF1437BD46EB
:1004F00080BC70470010024080B483B000AF034658
:10050000FB71044AFB79136000BF0C37BD4680BC09
:10051000704700BF6000424280B485B000AF786091
:100520000023FB60094B5B68FB60FB6823F003035F
:10053000FB60FA687B681343FB60044AFB68536006
:1005400000BF1437BD4680BC704700BF001002409A
:1005500080B400AF044B5B68DBB203F00C03DBB28A
:100560001846BD4680BC70470010024080B485B07C
:1005700000AF78600023FB60094B5B68FB60FB68A1
:1005800023F0F003FB60FA687B681343FB60044AC6
:10059000FB68536000BF1437BD4680BC704700BF86
:1005A0000010024080B485B000AF78600023FB608B
:1005B000094B5B68FB60FB6823F4E063FB60FA684F
:1005C0007B681343FB60044AFB68536000BF143729
:1005D000BD4680BC704700BF0010024080B485B0AB
:1005E00000AF78600023FB60094B5B68FB60FB6831
:1005F00023F46053FB607B68DB00FA681343FB6005
:10060000034AFB68536000BF1437BD4680BC704787
:100610000010024080B483B000AF03460A46FB716D
:100620001346BB71BB79002B08D00C490B4B1B78D0
:10063000DAB2FB791343DBB20B7009E00749074BD1
:100640001B78DAB2FB79DB43DBB21340DBB20B7011
:1006500000BF0C37BD4680BC704700BF0910024088
:1006600080B483B000AF7860034A7B68136000BF3A
:100670000C37BD4680BC7047D800424280B485B07C
:1006800000AF78600023FB60094B5B68FB60FB6890
:1006900023F44043FB60FA687B681343FB60044A21
:1006A000FB68536000BF1437BD4680BC704700BF75
:1006B0000010024080B483B000AF0346FB710C4BC6
:1006C00000221A700A4B00221A70FB79012B02D00B
:1006D000042B04D007E0064B01221A7003E0044B00
:1006E00005221A7000BF00BF0C37BD4680BC7047A2
:1006F0002010024080B483B000AF0346FB71044A6F
:10070000FB79136000BF0C37BD4680BC704700BF4B
:100710008004424280B483B000AF78600549054B45
:100720001A6A7B6813430B6200BF0C37BD4680BC5E
:10073000704700BF0010024080B483B000AF034692
:10074000FB71044AFB79136000BF0C37BD4680BCC7
:10075000704700BF3C04424280B487B000AF78606D
:1007600000237B6100233B610023FB600023BB600F
:100770004C4B5B6803F00C037B617B69042B07D057
:10078000082B09D0002B33D17B68474A1A6033E02D
:100790007B68454A1A602FE0424B5B6803F4701394
:1007A0003B61404B5B6803F48033FB603B699B0C0F
:1007B00002333B61FB68002B06D13B693B4A02FBDD
:1007C00003F27B681A6017E0364B5B6803F4003372
:1007D000002B06D03B69354A02FB03F27B681A60A6
:1007E0000AE03B69304A02FB03F27B681A6003E0CF
:1007F0007B682D4A1A6000BF2A4B5B6803F0F00348
:100800007B617B691B097B61294A7B6913441B78E7
:10081000DBB2BB607B681A68BB68DA407B685A60F1
:10082000204B5B6803F4E0637B617B691B0A7B619F
:100830001F4A7B6913441B78DBB2BB607B685A6834
:10084000BB68DA407B689A60164B5B6803F46053C0
:100850007B617B69DB0A7B61154A7B6913441B78EA
:10086000DBB2BB607B685A68BB68DA407B68DA60E1
:100870000C4B5B6803F440437B617B699B0B7B61A2
:100880000C4A7B6913441B78DBB2BB607B68DA6877
:10089000BB68B2FBF3F27B681A6100BF1C37BD4630
:1008A00080BC70470010024000127A0000093D0031
:1008B000140000202400002080B483B000AF7860D2
:1008C0000B46FB70FB78002B06D00949084B5A6990
:1008D0007B6813434B6106E00549054B5A697B6809
:1008E000DB4313404B6100BF0C37BD4680BC7047F3
:1008F0000010024080B483B000AF78600B46FB70FC
:10090000FB78002B06D00949084B9A697B68134392
:100910008B6106E00549054B9A697B68DB43134010
:100920008B6100BF0C37BD4680BC70470010024091
:1009300080B483B000AF78600B46FB70FB78002B6F
:1009400006D00949084BDA697B681343CB6106E09E
:100950000549054BDA697B68DB431340CB6100BF77
:100960000C37BD4680BC70470010024080B483B095
:1009700000AF78600B46FB70FB78002B06D009496E
:10098000084BDA687B681343CB6006E00549054BEA
:10099000DA687B68DB431340CB6000BF0C37BD4691
:1009A00080BC70470010024080B483B000AF786014
:1009B0000B46FB70FB78002B06D00949084B1A69DF
:1009C0007B6813430B6106E00549054B1A697B6898
:1009D000DB4313400B6100BF0C37BD4680BC704742
:1009E0000010024080B483B000AF0346FB71044A9C
:1009F000FB79136000BF0C37BD4680BC704700BF59
:100A00004004424280B483B000AF0346FB71044A05
:100A1000FB79136000BF0C37BD4680BC704700BF38
:100A20004C00424280B483B000AF0346FB71044ADD
:100A3000FB79137000BF0C37BD4680BC704700BF08
:100A40000710024080B487B000AF0346FB7100235B
:100A5000FB6000237B610023FB74FB795B09DBB245
:100A6000FB60FB68012B03D1124B1B687B6109E023
:100A7000FB68022B03D10F4B1B6A7B6102E00D4B1D
:100A80005B6A7B61FB7903F01F03FB607A69FB689B
:100A900022FA03F303F00103002B02D00123FB74BD
:100AA00001E00023FB74FB7C18461C37BD4680BC6C
:100AB000704700BF0010024080B400AF044A044BEE
:100AC0005B6A43F08073536200BFBD4680BC7047D1
:100AD0000010024080B485B000AF0346FB710023D4
:100AE000FB73084B9A68FB791340002B02D001235B
:100AF000FB7301E00023FB73FB7B18461437BD46F4
:100B000080BC70470010024080B483B000AF034641
:100B1000FB71044AFB79137000BF0C37BD4680BCE3
:100B2000704700BF0A10024080B582B000AF786005
:100B30007B68784A93420AD101214FF40060FFF7A5
:100B400015FF00214FF40060FFF710FFDEE07B6827
:100B5000B3F1804F08D101210120FFF725FF0021CB
:100B60000120FFF721FFD1E07B686B4A934208D157
:100B700001210220FFF718FF00210220FFF714FFD8
:100B8000C4E07B68654A934208D101210420FFF745
:100B90000BFF00210420FFF707FFB7E07B68604AE6
:100BA000934208D101210820FFF7FEFE0021082012
:100BB000FFF7FAFEAAE07B685A4A934208D1012166
:100BC0001020FFF7F1FE00211020FFF7EDFE9DE061
:100BD0007B68554A934208D101212020FFF7E4FEAB
:100BE00000212020FFF7E0FE90E07B684F4A93420F
:100BF0000AD101214FF40050FFF7B8FE00214FF455
:100C00000050FFF7B3FE81E07B68494A93420AD166
:100C100001214FF40020FFF7A9FE00214FF400202E
:100C2000FFF7A4FE72E07B68424A93420AD1012199
:100C30004FF48010FFF79AFE00214FF48010FFF769
:100C400095FE63E07B683C4A93420AD101214FF450
:100C50000010FFF78BFE00214FF40010FFF786FE17
:100C600054E07B68354A934208D101214020FFF7C8
:100C70009BFE00214020FFF797FE47E07B68304A4B
:100C8000934208D101218020FFF78EFE00218020B1
:100C9000FFF78AFE3AE07B682A4A93420AD1012193
:100CA0004FF48070FFF780FE00214FF48070FFF753
:100CB0007BFE2BE07B68244A93420AD101214FF44A
:100CC0008030FFF753FE00214FF48030FFF74EFED7
:100CD0001CE07B681D4A93420AD101214FF4003089
:100CE000FFF744FE00214FF40030FFF73FFE0DE018
:100CF0007B68174A934209D101214FF48020FFF706
:100D000035FE00214FF48020FFF730FE00BF08378A
:100D1000BD4680BD002C014000040040000800409A
:100D2000000C00400010004000140040003401405E
:100D3000004C0140005001400054014000180040A8
:100D4000001C0040002000400040014000440140E1
:100D50000048014080B485B000AF7860396000235E
:100D6000FB817B681B88FB817B682E4A934213D0F2
:100D70007B682D4A93420FD07B68B3F1804F0BD034
:100D80007B682A4A934207D07B68294A934203D062
:100D90007B68284A934208D1FB8923F07003FB81CA
:100DA0003B685A88FB891343FB817B68224A934244
:100DB0000CD07B68214A934208D0FB8923F440730E
:100DC000FB813B68DA88FB891343FB817B68FA89E6
:100DD0001A803B689A887B689A853B681A887B688A
:100DE0001A857B680F4A93420FD07B680E4A934264
:100DF0000BD07B68124A934207D07B68114A93421A
:100E000003D07B68104A934204D13B681B7A9AB2A4
:100E10007B681A867B6801229A8200BF1437BD4620
:100E200080BC7047002C01400034014000040040A9
:100E300000080040000C004000100040001400407A
:100E400000400140004401400048014080B485B0AA
:100E500000AF7860396000237B810023FB81002391
:100E6000BB817B681B8C9BB223F001039AB27B6829
:100E70001A847B681B8CFB817B689B88BB817B68A9
:100E80001B8B7B817B8923F070037B817B8923F023
:100E900003037B813B681A887B8913437B81FB8931
:100EA00023F00203FB813B681A89FB891343FB8112
:100EB0003B685A88FB891343FB817B68244A934231
:100EC0000FD07B68234A93420BD07B68224A93421F
:100ED00007D07B68214A934203D07B68204A934223
:100EE00023D1FB8923F00803FB813B685A89FB89E6
:100EF0001343FB81FB8923F00403FB813B689A8841
:100F0000FB891343FB81BB8923F48073BB81BB89BD
:100F100023F40073BB813B689A89BB891343BB816F
:100F20003B68DA89BB891343BB817B68BA899A80A5
:100F30007B687A891A833B68DA887B689A867B6843
:100F4000FA891A8400BF1437BD4680BC704700BFC1
:100F5000002C0140003401400040014000440140A9
:100F60000048014080B485B000AF7860396000234C
:100F70007B810023FB810023BB817B681B8C9BB2A0
:100F800023F010039AB27B681A847B681B8CFB8168
:100F90007B689B88BB817B681B8B7B817B8923F46F
:100FA000E0437B817B8923F440737B813B681B8812
:100FB0001B029AB27B8913437B81FB8923F02003B8
:100FC000FB813B681B891B019AB2FB891343FB81A0
:100FD0003B685B881B019AB2FB891343FB817B68EA
:100FE000224A934203D07B68214A93422BD1FB894A
:100FF00023F08003FB813B685B891B019AB2FB896C
:101000001343FB81FB8923F04003FB813B689B88F2
:101010001B019AB2FB891343FB81BB8923F48063D4
:10102000BB81BB8923F40063BB813B689B899B0028
:101030009AB2BB891343BB813B68DB899B009AB2A0
:10104000BB891343BB817B68BA899A807B687A89A4
:101050001A833B68DA887B681A877B68FA891A8466
:1010600000BF1437BD4680BC704700BF002C014054
:101070000034014080B485B000AF7860396000234F
:101080007B810023FB810023BB817B681B8C9BB28F
:1010900023F480739AB27B681A847B681B8CFB8173
:1010A0007B689B88BB817B689B8B7B817B8923F0E2
:1010B00070037B817B8923F003037B813B681A8863
:1010C0007B8913437B81FB8923F40073FB813B689D
:1010D0001B891B029AB2FB891343FB813B685B8827
:1010E0001B029AB2FB891343FB817B68224A93421D
:1010F00003D07B68214A93422BD1FB8923F4006300
:10110000FB813B685B891B029AB2FB891343FB811D
:10111000FB8923F48063FB813B689B881B029AB2A6
:10112000FB891343FB81BB8923F48053BB81BB89BB
:1011300023F40053BB813B689B891B019AB2BB8996
:101140001343BB813B68DB891B019AB2BB89134304
:10115000BB817B68BA899A807B687A899A833B686D
:10116000DA887B689A877B68FA891A8400BF14370B
:10117000BD4680BC704700BF002C014000340140D8
:1011800080B485B000AF786039600023BB81002354
:101190007B810023FB817B681B8C9BB223F48053F3
:1011A0009AB27B681A847B681B8C7B817B689B88E6
:1011B000FB817B689B8BBB81BB8923F4E043BB81B4
:1011C000BB8923F44073BB813B681B881B029AB226
:1011D000BB891343BB817B8923F400537B813B682C
:1011E0001B891B039AB27B8913437B813B685B8815
:1011F0001B039AB27B8913437B817B68124A93421B
:1012000003D07B68114A93420AD1FB8923F48043BF
:10121000FB813B689B899B019AB2FB891343FB814D
:101220007B68FA899A807B68BA899A833B68DA88F6
:101230007B68A3F840207B687A891A8400BF143742
:10124000BD4680BC704700BF002C01400034014007
:1012500080B582B000AF786039603B681B88002B96
:101260000FD13B6859883B689A883B681B8978682E
:1012700001F088F93B68DB881946786801F042F88C
:1012800036E03B681B88042B0FD13B6859883B68CC
:101290009A883B681B89786801F0E4F93B68DB8831
:1012A0001946786801F04AF822E03B681B88082B51
:1012B0000FD13B6859883B689A883B681B897868DE
:1012C00001F04AFA3B68DB881946786801F054F867
:1012D0000EE03B6859883B689A883B681B897868B0
:1012E00001F0B0FA3B68DB881946786801F060F8D5
:1012F00000BF0837BD4680BD80B584B000AF7860C0
:1013000039600023FB810123BB813B685B88002B94
:1013100002D10223FB8101E00023FB813B689B8813
:10132000012B02D10223BB8101E00123BB813B6879
:101330001B88002B1CD13B6859883B689A883B6806
:101340001B89786801F01EF93B68DB8819467868CC
:1013500000F0D8FF3B681B89BA89F989786801F0E9
:1013600081F93B68DB881946786800F0E7FF1BE0ED
:101370003B6859883B689A883B681B89786801F00C
:1013800071F93B68DB881946786800F0D7FF3B6845
:101390001B89BA89F989786801F0F4F83B68DB8821
:1013A0001946786800F0AEFF00BF1037BD4680BD1B
:1013B00080B483B000AF786039603B681A883B68BE
:1013C0005B8813439AB23B689B8813439AB23B688D
:1013D000DB8813439AB23B681B8913439AB23B687C
:1013E0005B8913439AB23B689B8913439AB27B682B
:1013F000A3F8442000BF0C37BD4680BC704700BF37
:1014000080B483B000AF78607B684FF6FF729A803B
:101410007B6800221A807B680022DA807B680022C9
:101420005A807B6800221A7200BF0C37BD4680BC10
:10143000704700BF80B483B000AF78607B68002243
:101440001A807B6800225A807B6800229A807B6821
:101450000022DA807B6800221A817B6800225A8190
:101460007B6800229A817B680022DA8100BF0C37FA
:10147000BD4680BC704700BF80B483B000AF7860C9
:101480007B6800221A807B6800225A807B680122D8
:101490009A807B680022DA807B6800221A8100BF74
:1014A0000C37BD4680BC704780B483B000AF786015
:1014B0007B6800221A807B6800225A807B680022A9
:1014C0009A807B680022DA807B6800221A817B6820
:1014D00000225A817B6800229A8100BF0C37BD46EA
:1014E00080BC704780B483B000AF78600B46FB705F
:1014F000FB78002B08D07B681B889BB243F001036C
:101500009AB27B681A8007E07B681B889BB223F045
:1015100001039AB27B681A8000BF0C37BD4680BCBD
:10152000704700BF80B483B000AF78600B46FB709B
:10153000FB78002B0CD07B68B3F844309BB26FEA89
:1015400043436FEA53439AB27B68A3F8442009E00F
:101550007B68B3F844309BB2C3F30E039AB27B6846
:10156000A3F8442000BF0C37BD4680BC704700BFC5
:1015700080B483B000AF78600B467B8013467B70ED
:101580007B78002B08D07B689B899AB27B881343B9
:101590009AB27B689A8109E07B689B899AB27B88C2
:1015A000DB439BB213409AB27B689A8100BF0C3731
:1015B000BD4680BC704700BF80B483B000AF786088
:1015C0000B467B807B687A889A8200BF0C37BD46C9
:1015D00080BC704780B483B000AF78600B467B80DE
:1015E00013463B807A883B8813439AB27B68A3F802
:1015F000482000BF0C37BD4680BC704780B483B024
:1016000000AF78600B467B8013467B707B78002BA5
:1016100008D07B689B899AB27B8813439AB27B6817
:101620009A8109E07B689B899AB27B88DB439BB2F5
:1016300013409AB27B689A8100BF0C37BD4680BCCC
:10164000704700BF80B483B000AF78607B681B89AF
:101650009BB223F007039AB27B681A8100BF0C3754
:10166000BD4680BC704700BF80B582B000AF7860D7
:101670000B467B807B881946786800F0E5F87B682C
:101680001B899BB243F007039AB27B681A8100BFA3
:101690000837BD4680BD00BF80B584B000AFF8609C
:1016A000084611461A4603467B810B463B8113468A
:1016B000FB807B89602B06D1FB8839890122F86881
:1016C00000F0D0FF05E0FB8839890122F86800F0BE
:1016D00059FF7B891946F86800F0B6F8FB681B894A
:1016E0009BB243F007039AB2FB681A8100BF103720
:1016F000BD4680BD80B586B000AFF8600846114693
:101700001A4603467B810B463B811346FB80002330
:10171000FB82FB883A897989F86800F03BF8FB681E
:101720001B89FB82FB8A23F00703FB82FB8A43F0C1
:101730000703FB82FB8A23F07003FB82FB8A43F0E2
:101740007003FB82FB68FA8A1A8100BF1837BD4616
:1017500080BD00BF80B584B000AFF8600846114678
:101760001A4603467B810B463B811346FB80FB8870
:101770003A897989F86800F00DF8FB681B899BB2FB
:1017800043F480439AB2FB681A8100BF1037BD460C
:1017900080BD00BF80B487B000AFF8600846114636
:1017A0001A4603467B810B463B811346FB80002390
:1017B000FB82FB681B89FB82FB8ADBB2FB82FB8816
:1017C0001B029AB23B8913439AB27B8913439AB2A4
:1017D000FB8A1343FB82FB68FA8A1A8100BF1C371D
:1017E000BD4680BC704700BF80B483B000AF786056
:1017F0000B467B8013463B807B687A881A857B6822
:101800003A889A8200BF0C37BD4680BC704700BF43
:1018100080B485B000AF78600B467B800023FB81ED
:101820007B681B88FB81FB8923F07003FB81FA89AD
:101830007B881343FB817B68FA891A8000BF1437C9
:10184000BD4680BC704700BF80B485B000AF7860F3
:101850000B467B800023FB817B681B89FB81FB8916
:1018600023F07003FB81FA897B881343FB817B683B
:10187000FA891A8100BF1437BD4680BC704700BF8B
:1018800080B487B000AFF860084611461A46034698
:101890007B810B463B811346FB800023FB820023A8
:1018A000BB8200237B82FB681B89FB82FB681B8B4E
:1018B000BB82FB681B8C7B82FB8A23F00703FB82C5
:1018C000FA8A7B891343FB82BB8A23F4407323F09B
:1018D0000303BB82BB8A43F4807343F00103BB82E2
:1018E0007B8A23F022037B82FB881B019AB23B890F
:1018F00013439AB27B8A13437B82FB68FA8A1A816C
:10190000FB68BA8A1A83FB687A8A1A8400BF1C377C
:10191000BD4680BC704700BF80B485B000AF786022
:101920000B467B800023FB817B681B8BFB81FB8943
:1019300023F07003FB81FA897B881343FB817B686A
:10194000FA891A8300BF1437BD4680BC704700BFB8
:1019500080B485B000AF78600B467B800023FB81AC
:101960007B681B8BFB81FB8923F4E043FB817B8835
:101970001B029AB2FB891343FB817B68FA891A83A5
:1019800000BF1437BD4680BC704700BF80B485B02F
:1019900000AF78600B467B800023FB817B689B8BCC
:1019A000FB81FB8923F07003FB81FA897B88134359
:1019B000FB817B68FA899A8300BF1437BD4680BCDF
:1019C000704700BF80B485B000AF78600B467B8065
:1019D0000023FB817B689B8BFB81FB8923F4E04325
:1019E000FB817B881B029AB2FB891343FB817B68D6
:1019F000FA899A8300BF1437BD4680BC704700BF88
:101A000080B483B000AF78600B46FB70FB78002B8E
:101A100008D07B681B889BB243F080039AB27B6836
:101A20001A8007E07B681B889BB223F080039AB280
:101A30007B681A8000BF0C37BD4680BC704700BF72
:101A400080B483B000AF78600B46FB70FB78002B4E
:101A500008D07B689B889BB243F004039AB27B68F2
:101A60009A8007E07B689B889BB223F004039AB2BC
:101A70007B689A8000BF0C37BD4680BC704700BFB2
:101A800080B483B000AF78600B46FB70FB78002B0E
:101A900008D07B689B889BB243F008039AB27B68AE
:101AA0009A8007E07B689B889BB223F008039AB278
:101AB0007B689A8000BF0C37BD4680BC704700BF72
:101AC00080B483B000AF78600B46FB70FB78002BCE
:101AD00008D07B689B889BB243F001039AB27B6875
:101AE0009A8007E07B689B889BB223F001039AB23F
:101AF0007B689A8000BF0C37BD4680BC704700BF32
:101B000080B485B000AF78600B467B800023FB81FA
:101B10007B681B8BFB81FB8923F00803FB81FA891F
:101B20007B881343FB817B68FA891A8300BF1437D3
:101B3000BD4680BC704700BF80B485B000AF786000
:101B40000B467B800023FB817B681B8BFB81FB8921
:101B500023F40063FB817B881B029AB2FB89134349
:101B6000FB817B68FA891A8300BF1437BD4680BCAD
:101B7000704700BF80B485B000AF78600B467B80B3
:101B80000023FB817B689B8BFB81FB8923F008038F
:101B9000FB81FA897B881343FB817B68FA899A83EE
:101BA00000BF1437BD4680BC704700BF80B485B00D
:101BB00000AF78600B467B800023FB817B689B8BAA
:101BC000FB81FB8923F40063FB817B881B029AB2B3
:101BD000FB891343FB817B68FA899A8300BF143722
:101BE000BD4680BC704700BF80B485B000AF786050
:101BF0000B467B800023FB817B681B8BFB81FB8971
:101C000023F00403FB81FA897B881343FB817B6803
:101C1000FA891A8300BF1437BD4680BC704700BFE5
:101C200080B485B000AF78600B467B800023FB81D9
:101C30007B681B8BFB81FB8923F48063FB817B88A2
:101C40001B029AB2FB891343FB817B68FA891A83D2
:101C500000BF1437BD4680BC704700BF80B485B05C
:101C600000AF78600B467B800023FB817B689B8BF9
:101C7000FB81FB8923F00403FB81FA897B881343F2
:101C8000FB817B68FA899A8300BF1437BD4680BC0C
:101C9000704700BF80B485B000AF78600B467B8092
:101CA0000023FB817B689B8BFB81FB8923F4806392
:101CB000FB817B881B029AB2FB891343FB817B6803
:101CC000FA899A8300BF1437BD4680BC704700BFB5
:101CD00080B485B000AF78600B467B800023FB8129
:101CE0007B681B8BFB81FB8923F08003FB81FA89D6
:101CF0007B881343FB817B68FA891A8300BF143702
:101D0000BD4680BC704700BF80B485B000AF78602E
:101D10000B467B800023FB817B681B8BFB81FB894F
:101D2000C3F30E03FB817B881B029AB2FB8913432A
:101D3000FB817B68FA891A8300BF1437BD4680BCDB
:101D4000704700BF80B485B000AF78600B467B80E1
:101D50000023FB817B689B8BFB81FB8923F0800345
:101D6000FB81FA897B881343FB817B68FA899A831C
:101D700000BF1437BD4680BC704700BF80B485B03B
:101D800000AF78600B467B800023FB817B689B8BD8
:101D9000FB81FB89C3F30E03FB817B881B029AB294
:101DA000FB891343FB817B68FA899A8300BF143750
:101DB000BD4680BC704700BF80B485B000AF78607E
:101DC0000B467B800023FB817B681B8CFB81FB899E
:101DD00023F00203FB81FA897B881343FB817B6834
:101DE000FA891A8400BF1437BD4680BC704700BF13
:101DF00080B485B000AF78600B467B800023FB8108
:101E00007B681B8CFB81FB8923F00803FB81FA892B
:101E10007B881343FB817B68FA891A8400BF1437DF
:101E2000BD4680BC704700BF80B485B000AF78600D
:101E30000B467B800023FB817B681B8CFB81FB892D
:101E400023F02003FB817B881B019AB2FB8913439B
:101E5000FB817B68FA891A8400BF1437BD4680BCB9
:101E6000704700BF80B485B000AF78600B467B80C0
:101E70000023FB817B681B8CFB81FB8923F08003A3
:101E8000FB817B881B019AB2FB891343FB817B6832
:101E9000FA891A8400BF1437BD4680BC704700BF62
:101EA00080B485B000AF78600B467B800023FB8157
:101EB0007B681B8CFB81FB8923F40073FB817B888F
:101EC0001B029AB2FB891343FB817B68FA891A844F
:101ED00000BF1437BD4680BC704700BF80B485B0DA
:101EE00000AF78600B467B800023FB817B681B8CF6
:101EF000FB81FB8923F40063FB817B881B029AB280
:101F0000FB891343FB817B68FA891A8400BF14376D
:101F1000BD4680BC704700BF80B485B000AF78601C
:101F20000B467B800023FB817B681B8CFB81FB893C
:101F300023F40053FB817B881B039AB2FB89134374
:101F4000FB817B68FA891A8400BF1437BD4680BCC8
:101F5000704700BF80B485B000AF78600B467B80CF
:101F600013463B800023FB817B88012202FA03F3A6
:101F7000FB817B681B8C9AB2FB89DB439BB21340CD
:101F80009AB27B681A847B681B8C9BB299B23A88A0
:101F90007B8802FA03F39BB20A4613439BB29AB2C0
:101FA0007B681A8400BF1437BD4680BC704700BFF1
:101FB00080B485B000AF78600B467B8013463B80D1
:101FC0000023FB817B88042202FA03F3FB817B68F8
:101FD0001B8C9AB2FB89DB439BB213409AB27B689D
:101FE0001A847B681B8C9BB299B23A887B8802FA70
:101FF00003F39BB20A4613439BB29AB27B681A84DE
:1020000000BF1437BD4680BC704700BF80B485B0A8
:1020100000AF78600B467B8013463B800023FB605B
:1020200000237B817B68FB60FB681833FB607B8847
:10203000012202FA03F37B817B681B8C9AB27B89B5
:10204000DB439BB213409AB27B681A847B88002BD7
:1020500002D07B88082B13D17B885B089BB21A4681
:10206000FB681344FB60FB68FA68126822F0700298
:102070001A60FB68FA6811683A880A431A6016E029
:102080007B88043B9BB25B089BB21A46FB681344F7
:10209000FB60FB68FA68126822F4E0421A60FB6891
:1020A000FA6812683988090289B20A431A6000BFC7
:1020B0001437BD4680BC704780B483B000AF7860F1
:1020C0000B46FB70FB78002B08D07B681B889BB20B
:1020D00043F002039AB27B681A8007E07B681B8892
:1020E0009BB223F002039AB27B681A8000BF0C37C0
:1020F000BD4680BC704700BF80B483B000AF78603D
:102100000B467B807B88002B08D07B681B889BB2AA
:1021100043F004039AB27B681A8007E07B681B884F
:102120009BB223F004039AB27B681A8000BF0C377D
:10213000BD4680BC704700BF80B483B000AF7860FC
:102140000B46FB70FB78002B08D07B689B889BB20A
:1021500043F080039AB27B689A8007E07B689B8893
:102160009BB223F080039AB27B689A8000BF0C3741
:10217000BD4680BC704700BF80B483B000AF7860BC
:102180000B467B807B681B889BB223F008039AB2C6
:102190007B681A807B681B889AB27B8813439AB24B
:1021A0007B681A8000BF0C37BD4680BC704700BFFB
:1021B00080B483B000AF78600B467B807B689B88DF
:1021C0009BB223F070039AB27B689A807B689B88ED
:1021D0009AB27B8813439AB27B689A8000BF0C370F
:1021E000BD4680BC704700BF80B483B000AF78604C
:1021F0000B467B807B681B899BB223F007039AB256
:102200007B681A817B681B899AB27B8813439AB2D8
:102210007B681A8100BF0C37BD4680BC704700BF89
:1022200080B483B000AF78600B467B807B681B89ED
:102230009BB223F080039AB27B681A817B681B896A
:102240009AB27B8813439AB27B681A8100BF0C371D
:10225000BD4680BC704700BF80B483B000AF7860DB
:102260000B467B807B687A889A8400BF0C37BD461A
:1022700080BC704780B483B000AF78600B467B8031
:102280007B687A889A8500BF0C37BD4680BC704752
:1022900080B483B000AF78600B467B807B687A881F
:1022A0009A8600BF0C37BD4680BC704780B483B0AF
:1022B00000AF78600B467B807B687A881A8700BF06
:1022C0000C37BD4680BC704780B483B000AF7860E7
:1022D0000B467B807B687A889A8700BF0C37BD46A7
:1022E00080BC704780B483B000AF78600B467B80C1
:1022F0007B687A88A3F8402000BF0C37BD4680BCBD
:10230000704700BF80B483B000AF78600B467B801D
:102310007B681B8B9BB223F00C039AB27B681A83F9
:102320007B681B8B9AB27B8813439AB27B681A83B3
:1023300000BF0C37BD4680BC704700BF80B483B07F
:1023400000AF78600B467B807B681B8B9BB223F4CD
:1023500040639AB27B681A837B681B8B9AB27B8836
:102360001B029BB213439AB27B681A8300BF0C37DF
:10237000BD4680BC704700BF80B483B000AF7860BA
:102380000B467B807B689B8B9BB223F00C039AB23D
:102390007B689A837B689B8B9AB27B8813439AB243
:1023A0007B689A8300BF0C37BD4680BC704700BF76
:1023B00080B483B000AF78600B467B807B689B8BDA
:1023C0009BB223F440639AB27B689A837B689B8BB1
:1023D0009AB27B881B029BB213439AB27B689A83A2
:1023E00000BF0C37BD4680BC704700BF80B483B0CF
:1023F00000AF78600B467B807B681B889BB223F420
:1024000040739AB27B681A807B681B889AB27B887B
:1024100013439AB27B681A8000BF0C37BD4680BC5C
:10242000704700BF80B483B000AF78607B689B8E3C
:102430009BB218460C37BD4680BC704780B483B051
:1024400000AF78607B681B8F9BB218460C37BD4687
:1024500080BC704780B483B000AF78607B689B8F8E
:102460009BB218460C37BD4680BC704780B483B021
:1024700000AF78607B68B3F840309BB218460C37E9
:10248000BD4680BC704700BF80B483B000AF7860A9
:102490007B689B8C9BB218460C37BD4680BC70474E
:1024A00080B483B000AF78607B681B8D9BB2184608
:1024B0000C37BD4680BC704780B485B000AF7860F3
:1024C0000B467B800023FB737B681B8A9AB27B8858
:1024D00013409BB2002B02D00123FB7301E00023C9
:1024E000FB73FB7B18461437BD4680BC704700BFAA
:1024F00080B483B000AF78600B467B807B88DB4381
:102500009AB27B681A8200BF0C37BD4680BC704708
:1025100080B485B000AF78600B467B800023FB73EE
:102520000023BB8100237B817B681B8A9AB27B8856
:102530001340BB817B689B899AB27B8813407B8167
:10254000BB89002B05D07B89002B02D00123FB73B4
:1025500001E00023FB73FB7B18461437BD4680BCAB
:10256000704700BF80B483B000AF78600B467B80BB
:102570007B88DB439AB27B681A8200BF0C37BD466A
:1025800080BC704780B487B000AFF8600846114641
:102590001A4603467B810B463B811346FB80002392
:1025A000BB820023FB82FB681B8C9BB223F00103E0
:1025B0009AB2FB681A84FB681B8BBB82FB681B8C7E
:1025C000FB82BB8A23F0F303BB82FB881B019AB218
:1025D0003B8913439AB2BB8A1343BB82FB681C4AF4
:1025E000934213D0FB681B4A93420FD0FB68B3F1B0
:1025F000804F0BD0FB68184A934207D0FB68174AFC
:10260000934203D0FB68164A93420BD1FB8A23F016
:102610000203FB827A89FB8A13439BB243F00103D6
:10262000FB820AE0FB8A23F00A03FB827A89FB8A99
:1026300013439BB243F00103FB82FB68BA8A1A83FF
:10264000FB68FA8A1A8400BF1C37BD4680BC7047FD
:10265000002C01400034014000040040000800400C
:10266000000C004080B487B000AFF8600846114607
:102670001A4603467B810B463B811346FB800023B1
:10268000BB820023FB8200237B82FB681B8C9BB2F6
:1026900023F010039AB2FB681A84FB681B8BBB8281
:1026A000FB681B8CFB827B891B017B82BB8A23F42A
:1026B00040731B051B0DBB82FB881B039AB2BB8AB0
:1026C0001343BB823B891B029AB2BB8A1343BB8272
:1026D000FB681C4A934213D0FB681B4A93420FD0FD
:1026E000FB68B3F1804F0BD0FB68184A934207D0C8
:1026F000FB68174A934203D0FB68164A93420BD1FA
:10270000FB8A23F02003FB827A8AFB8A13439BB265
:1027100043F01003FB820AE0FB8A23F0A003FB8254
:102720007A89FB8A13439BB243F01003FB82FB6858
:10273000BA8A1A83FB68FA8A1A8400BF1C37BD461E
:1027400080BC7047002C0140003401400004004070
:1027500000080040000C004080B487B000AFF86073
:10276000084611461A4603467B810B463B811346B9
:10277000FB800023BB820023FB8200237B82FB685B
:102780001B8C9BB223F480739AB2FB681A84FB689B
:102790009B8BBB82FB681B8CFB827B891B027B8231
:1027A000BB8A23F0F303BB82FB881B019AB23B89EF
:1027B00013439AB2BB8A1343BB82FB681C4A934201
:1027C00013D0FB681B4A93420FD0FB68B3F1804FD4
:1027D0000BD0FB68184A934207D0FB68174A934214
:1027E00003D0FB68164A93420BD1FB8A23F4007393
:1027F000FB827A8AFB8A13439BB243F48073FB8289
:102800000AE0FB8A23F42063FB827A89FB8A134364
:102810009BB243F48073FB82FB68BA8A9A83FB689D
:10282000FA8A1A8400BF1C37BD4680BC704700BFBF
:10283000002C01400034014000040040000800402A
:10284000000C004080B487B000AFF8600846114625
:102850001A4603467B810B463B811346FB800023CF
:10286000BB820023FB8200237B82FB681B8C9BB214
:1028700023F480539AB2FB681A84FB689B8BBB825B
:10288000FB681B8CFB827B891B037B82BB8A23F446
:1028900040731B051B0DBB823B891B029AB2BB8A8E
:1028A0001343BB82FB881B039AB2BB8A1343BB82D0
:1028B000FB681D4A934213D0FB681C4A93420FD019
:1028C000FB68B3F1804F0BD0FB68194A934207D0E5
:1028D000FB68184A934203D0FB68174A93420BD116
:1028E000FB8A23F40053FB827A8AFB8A13439BB250
:1028F00043F48053FB820CE0FB8A23F400735B04F7
:102900005B0CFB827A89FB8A13439BB243F48053AE
:10291000FB82FB68BA8A9A83FB68FA8A1A8400BF32
:102920001C37BD4680BC7047002C0140003401407C
:102930000004004000080040000C004080B483B058
:1029400000AF7860054A7B6843F0BF6343F400330F
:10295000D36000BF0C37BD4680BC704700ED00E07F
:1029600080B487B000AF786000237B6100233B61B7
:102970000F23FB607B68DB78002B3AD0274BDB68AA
:10298000DB4303F4E0631B0A7B617B69C3F104034F
:102990003B61FA687B6922FA03F3FB607B685B7832
:1029A0001A463B6902FA03F37B617B689B781A46FF
:1029B000FB6813407A6913437B617B691B017B6170
:1029C000174A7B681B787969C9B213440A4683F8B1
:1029D0000023134A7B681B785B09DBB218467B68CF
:1029E0001B7803F01F03012101FA03F342F82030A2
:1029F0000FE00B497B681B785B09DBB218467B68EC
:102A00001B7803F01F0301229A4000F1200341F8D4
:102A1000232000BF1C37BD4680BC704700ED00E09E
:102A200000E100E080B483B000AF7860396007490E
:102A30003B6823F0604323F07F037A6813438B6085
:102A400000BF0C37BD4680BC704700BF00ED00E002
:102A500080B483B000AF03460A46FB711346BB71D6
:102A6000BB79002B06D00949084B1A69FB7913433F
:102A70000B6106E00549054B1A69FB79DB431340FE
:102A80000B6100BF0C37BD4680BC704700ED00E015
:102A900080B483B000AF78607B68042B06D1094A0C
:102AA000084B1B6843F00403136005E0054A054B1F
:102AB0001B6823F00403136000BF0C37BD4680BCC5
:102AC000704700BF10E000E080B582B000AF7860D2
:102AD0007B68174A93420AD101214FF40070FDF739
:102AE00045FF00214FF40070FDF740FF1CE07B68BC
:102AF000104A93420AD101214FF48060FDF736FF5E
:102B000000214FF48060FDF731FF0DE07B680A4A39
:102B1000934209D101214FF40040FDF727FF002126
:102B20004FF40040FDF722FF00BF0837BD4680BDCF
:102B30000024014000280140003C014080B485B0E1
:102B400000AF786039600023FB600023FB727B6874
:102B50005B68FB60FB6823F4702323F48073FB60E5
:102B60003B681A683B681B791B021343FA681343DE
:102B7000FB607B68FA685A607B689B68FB60FA6858
:102B8000164B1340FB603B68DA683B689B681A434E
:102B90003B685B795B001343FA681343FB607B6817
:102BA000FA689A607B68DB6AFB60FB6823F4700359
:102BB000FB603B681B7C013BDAB2FB7A1343FB7280
:102BC000FB7A1B05FA681343FB607B68FA68DA62DC
:102BD00000BF1437BD4680BC704700BFFDF7F1FF52
:102BE00080B483B000AF78607B6800221A607B6895
:102BF00000221A717B6800225A717B6800229A6059
:102C00007B680022DA607B6801221A7400BF0C37EF
:102C1000BD4680BC704700BF80B483B000AF786011
:102C20000B46FB70FB78002B06D07B689B6843F05B
:102C300001027B689A6005E07B689B6823F00102D3
:102C40007B689A6000BF0C37BD4680BC704700BFF0
:102C500080B483B000AF78600B46FB70FB78002B2C
:102C600006D07B689B6843F480727B689A6005E0BD
:102C70007B689B6823F480727B689A6000BF0C3786
:102C8000BD4680BC704700BF80B485B000AF78609F
:102C90000B467B8013467B700023FB737B88FB73A2
:102CA0007B78002B06D07B685A68FB7B1A437B68D5
:102CB0005A6006E07B685A68FB7BDB431A407B68FE
:102CC0005A6000BF1437BD4680BC704780B483B0E3
:102CD00000AF78607B689B6843F008027B689A606D
:102CE00000BF0C37BD4680BC704700BF80B485B0C4
:102CF00000AF78600023FB737B689B6803F00803D8
:102D0000002B02D00123FB7301E00023FB73FB7B4C
:102D100018461437BD4680BC704700BF80B483B0EE
:102D200000AF78607B689B6843F004027B689A6020
:102D300000BF0C37BD4680BC704700BF80B485B073
:102D400000AF78600023FB737B689B6803F004038B
:102D5000002B02D00123FB7301E00023FB73FB7BFC
:102D600018461437BD4680BC704700BF80B483B09E
:102D700000AF78600B46FB70FB78002B06D07B68B9
:102D80009B6843F4A0027B689A6005E07B689B68BF
:102D900023F4A0027B689A6000BF0C37BD4680BC5C
:102DA000704700BF80B485B000AF78600023FB732C
:102DB0007B689B6803F48003002B02D00123FB7324
:102DC00001E00023FB73FB7B18461437BD4680BC33
:102DD000704700BF80B485B000AF78600B46FB70D1
:102DE0000023FB600023BB607B685B68FB60FB68C3
:102DF00023F46043FB60FB78013BBB60BB685B0373
:102E0000FA681343FB607B68FA685A6000BF1437A6
:102E1000BD4680BC704700BF80B483B000AF78600F
:102E20000B46FB70FB78002B06D07B685B6843F495
:102E300000627B685A6005E07B685B6823F400628F
:102E40007B685A6000BF0C37BD4680BC704700BF2E
:102E500080B485B000AF7860084611461A46034634
:102E6000FB700B46BB7013467B700023FB60002396
:102E7000BB60FB78092B23D97B68DB68FB60FB78A0
:102E8000A3F10A0213465B001344072202FA03F37C
:102E9000BB60BB68DB43FA681340FB607978FB7862
:102EA000A3F10A0213465B00134401FA03F3BB606B
:102EB000FA68BB681343FB607B68FA68DA601EE05F
:102EC0007B681B69FB60FA7813465B00134407229A
:102ED00002FA03F3BB60BB68DB43FA681340FB6094
:102EE0007978FA7813465B00134401FA03F3BB6068
:102EF000FA68BB681343FB607B68FA681A61BB78A9
:102F0000062B21D87B685B6BFB60BB785A1E13468F
:102F10009B0013441F2202FA03F3BB60BB68DB4330
:102F2000FA681340FB60F978BB785A1E13469B0081
:102F3000134401FA03F3BB60FA68BB681343FB60F8
:102F40007B68FA685A6347E0BB780C2B21D87B6812
:102F50001B6BFB60BB78DA1F13469B0013441F22D8
:102F600002FA03F3BB60BB68DB43FA681340FB6003
:102F7000F978BB78DA1F13469B00134401FA03F378
:102F8000BB60FA68BB681343FB607B68FA681A632E
:102F900022E07B68DB6AFB60BB78A3F10D0213467D
:102FA0009B0013441F2202FA03F3BB60BB68DB43A0
:102FB000FA681340FB60F978BB78A3F10D02134661
:102FC0009B00134401FA03F3BB60FA68BB68134328
:102FD000FB607B68FA68DA6200BF1437BD4680BCCC
:102FE000704700BF80B483B000AF78600B46FB70C1
:102FF000FB78002B06D07B689B6843F480127B68CB
:103000009A6005E07B689B6823F480127B689A6075
:1030100000BF0C37BD4680BC704700BF80B483B092
:1030200000AF78607B68DB6C9BB218460C37BD46FE
:1030300080BC704780B400AF024B1B681846BD4689
:1030400080BC70474C24014080B483B000AF7860EE
:103050000B46FB70FB78002B06D07B685B6843F463
:1030600080627B685A6005E07B685B6823F480625D
:103070007B685A6000BF0C37BD4680BC704700BFFC
:1030800080B483B000AF78600B46FB70FB78002BF8
:1030900006D07B685B6843F480527B685A6005E029
:1030A0007B685B6823F480527B685A6000BF0C37F2
:1030B000BD4680BC704700BF80B485B000AF78606B
:1030C00039600023FB607B689B68FB60FB6823F42E
:1030D000E043FB60FA683B681343FB607B68FA6877
:1030E0009A6000BF1437BD4680BC704780B483B07F
:1030F00000AF78600B46FB70FB78002B06D07B6836
:103100009B6843F400427B689A6005E07B689B689B
:1031100023F400427B689A6000BF0C37BD4680BC38
:10312000704700BF80B483B000AF78600B46FB707F
:10313000FB78002B06D07B689B6843F402127B6807
:103140009A6005E07B689B6823F402127B689A60B2
:1031500000BF0C37BD4680BC704700BF80B485B04F
:1031600000AF78600023FB737B689B6803F4001357
:10317000002B02D00123FB7301E00023FB73FB7BD8
:1031800018461437BD4680BC704700BF80B487B076
:1031900000AF7860084611461A460346FB700B469E
:1031A000BB7013467B7000237B6100233B610023CF
:1031B000FB60FB78092B23D97B68DB687B61FB789C
:1031C000A3F10A0213465B001344072202FA03F339
:1031D0003B613B69DB437A6913407B617978FB781B
:1031E000A3F10A0213465B00134401FA03F33B61A7
:1031F0007A693B6913437B617B687A69DA601EE018
:103200007B681B697B61FA7813465B0013440722D5
:1032100002FA03F33B613B69DB437A6913407B614C
:103220007978FA7813465B00134401FA03F33B61A3
:103230007A693B6913437B617B687A691A617B68B1
:103240009B6B7B617B691B0D03F00303FB60FB68D9
:10325000DBB2BA78D31ADBB20233DBB21A461346BA
:103260009B0013441F2202FA03F33B613B69DB43DB
:103270007A6913407B61FA78FB68DBB2B978CB1AC4
:10328000DBB20233DBB219460B469B000B4402FA59
:1032900003F33B617A693B6913437B617B687A691D
:1032A0009A6300BF1C37BD4680BC704780B485B0B0
:1032B00000AF78600B46FB700023FB600023BB600F
:1032C0007B689B6BFB60FB6823F44013FB60FB781F
:1032D000013BBB60BB681B05FA681343FB607B685E
:1032E000FA689A6300BF1437BD4680BC704700BFC0
:1032F00080B485B000AF78600B46FB7013463B800E
:103300000023FB607B68FB60FA78FB681344FB607A
:10331000FB681A463B88136000BF1437BD4680BC6B
:10332000704700BF80B485B000AF78600B46FB707B
:103330000023FB607B68FB60FA78FB68134428334A
:10334000FB60FB681B689BB218461437BD4680BC07
:10335000704700BF80B485B000AF7860396000234B
:10336000FB607B685B68FB60FB6823F4400323F42D
:103370000073FB60FA683B681343FB607B68FA6884
:103380005A6000BF1437BD4680BC704780B483B01C
:1033900000AF78600B467B8013463B807A887B6861
:1033A0005A623A887B689A6200BF0C37BD4680BC7F
:1033B000704700BF80B485B000AF78600B46FB70EB
:1033C0000023FB607B685B68FB60FB6823F01F03E6
:1033D000FB60FB78FA681343FB607B68FA685A600D
:1033E00000BF1437BD4680BC704700BF80B483B0B7
:1033F00000AF0346FB71FB79002B06D0084A084B4F
:103400009B6843F40003936005E0054A044B9B6806
:1034100023F40003936000BF0C37BD4680BC7047A7
:103420000024014080B485B000AF78600B46FB708B
:103430000023FB737B681A68FB781340002B02D0D3
:103440000123FB7301E00023FB73FB7B1846143759
:10345000BD4680BC704700BF80B483B000AF7860C9
:103460000B46FB70FB78DA437B681A6000BF0C37B1
:10347000BD4680BC704700BF80B487B000AF7860A5
:103480000B467B800023FB7500233B610023FB6020
:103490007B881B0A9BB23B617B685B687A88D2B2EF
:1034A0001340FB607B681A683B691340002B05D012
:1034B000FB68002B02D00123FB7501E00023FB75A4
:1034C000FB7D18461C37BD4680BC704780B485B074
:1034D00000AF78600B467B800023FB737B881B0A60
:1034E0009BB2FB73FB7BDA437B681A6000BF143727
:1034F000BD4680BC704700BF80B582B000AF786029
:103500007B68264A93420AD101214FF48040FDF79F
:103510002DFA00214FF48040FDF728FA3AE07B684D
:103520001F4A93420AD101214FF40030FDF73CFAC3
:1035300000214FF40030FDF737FA2BE07B68194A81
:1035400093420AD101214FF48020FDF72DFA00218A
:103550004FF48020FDF728FA1CE07B68124A934262
:103560000AD101214FF40020FDF71EFA00214FF48B
:103570000020FDF719FA0DE07B680C4A934209D14F
:1035800001214FF48010FDF70FFA00214FF4801055
:10359000FDF70AFA00BF0837BD4680BD003801407C
:1035A0000044004000480040004C004000500040F3
:1035B00080B58CB000AF786039600023FB620023D7
:1035C000BB6200237B6200233B620023FB617B68BC
:1035D000FB617B681B8A9BB2FB62FA6A4CF6FF7345
:1035E0001340FB623B68DB881A46FB6A1343FB62AD
:1035F000FB6A9AB27B681A827B689B899BB2FB62EA
:10360000FA6A4EF6F3131340FB623B689A883B68F4
:103610001B8913439AB23B685B8913439BB21A46DA
:10362000FB6A1343FB62FB6A9AB27B689A817B68F0
:103630009B8A9BB2FB62FA6A4FF6FF431340FB6220
:103640003B689B891A46FB6A1343FB62FB6A9AB28A
:103650007B689A8207F108031846FDF77DF8FB693D
:103660002F4A934202D17B69BB6201E03B69BB6296
:103670007B689B899BB29BB21BB2002B0CDABA6AA7
:1036800013469B0013449A001A443B681B685B0076
:10369000B2FBF3F37B620BE0BA6A13469B00134460
:1036A0009A001A443B681B689B00B2FBF3F37B62F1
:1036B0007B6A1C4AA2FB03235B091B01FB62FB6ABA
:1036C0001B09642202FB03F37A6AD31A3B627B680C
:1036D0009B899BB29BB21BB2002B0CDA3B6ADB00CE
:1036E0003233104AA2FB03235B0903F00703FA6A93
:1036F0001343FB620BE03B6A1B013233094AA2FB16
:1037000003235B0903F00F03FA6A1343FB62FB6AAE
:103710009AB27B681A8100BF3037BD4680BD00BFBA
:10372000003801401F85EB5180B483B000AF786052
:103730007B684FF416521A607B6800229A807B687F
:103740000022DA807B6800221A817B680C225A8171
:103750007B6800229A8100BF0C37BD4680BC704751
:1037600080B485B000AF786039600023FB607B686F
:103770001B8A9BB2FB60FA684FF2FF031340FB60A9
:103780003B681A883B685B8813439AB23B689B8806
:1037900013439AB23B68DB8813439BB21A46FB681B
:1037A0001343FB60FB689AB27B681A8200BF143730
:1037B000BD4680BC704700BF80B483B000AF786066
:1037C0007B6800221A807B6800225A807B68002276
:1037D0009A807B680022DA8000BF0C37BD4680BC2F
:1037E000704700BF80B483B000AF78600B46FB70B9
:1037F000FB78002B08D07B689B899BB243F4005375
:103800009AB27B689A8107E07B689B899BB223F41C
:1038100000539AB27B689A8100BF0C37BD4680BCCA
:10382000704700BF80B487B000AF78600B467B80E4
:1038300013467B7000233B610023FB600023BB60C9
:1038400000237B617B687B617B88DBB25B09DBB239
:103850003B617B8803F01F03FB600122FB6802FAD7
:1038600003F3BB603B69012B03D17B690C337B61A4
:1038700009E03B69022B03D17B6910337B6102E0D5
:103880007B6914337B617B78002B06D07B697A6976
:103890001168BA680A431A6006E07B697A691168A0
:1038A000BA68D2430A401A6000BF1C37BD4680BCCC
:1038B000704700BF80B483B000AF78600B467B8058
:1038C00013467B707B78002B08D07B689B8A9AB26A
:1038D0007B8813439AB27B689A8209E07B689B8A53
:1038E0009AB27B88DB439BB213409AB27B689A8280
:1038F00000BF0C37BD4680BC704700BF80B483B0AA
:1039000000AF78600B46FB707B681B8A9BB223F08C
:103910000F039AB27B681A827B681B8A9AB2FB7883
:103920009BB213439AB27B681A8200BF0C37BD4624
:1039300080BC704780B483B000AF78600B467B805A
:103940007B689B899BB223F400639AB27B689A815F
:103950007B689B899AB27B8813439AB27B689A8171
:1039600000BF0C37BD4680BC704700BF80B483B039
:1039700000AF78600B46FB70FB78002B08D07B68AB
:103980009B899BB243F002039AB27B689A8107E05D
:103990007B689B899BB223F002039AB27B689A8171
:1039A00000BF0C37BD4680BC704700BF80B483B0F9
:1039B00000AF78600B467B807B681B8A9BB223F04C
:1039C00020039AB27B681A827B681B8A9AB27B8832
:1039D00013439AB27B681A8200BF0C37BD4680BC85
:1039E000704700BF80B483B000AF78600B46FB70B7
:1039F000FB78002B08D07B681B8A9BB243F4804382
:103A00009AB27B681A8207E07B681B8A9BB223F418
:103A100080439AB27B681A8200BF0C37BD4680BCD7
:103A2000704700BF80B483B000AF78600B467B80E6
:103A30007B88C3F308039AB27B689A8000BF0C3777
:103A4000BD4680BC704700BF80B483B000AF7860D3
:103A50007B689B889BB2C3F308039BB218460C3764
:103A6000BD4680BC704700BF80B483B000AF7860B3
:103A70007B689B899BB243F001039AB27B689A8171
:103A800000BF0C37BD4680BC704700BF80B483B018
:103A900000AF78600B46FB707B681B8B9BB2DBB280
:103AA0009AB27B681A837B681B8B9AB2FB789BB2B5
:103AB0001B029BB213439AB27B681A8300BF0C3778
:103AC000BD4680BC704700BF80B483B000AF786053
:103AD0000B46FB707B681B8B9BB223F0FF039AB2F3
:103AE0007B681A837B681B8B9AB2FB789BB213436B
:103AF0009AB27B681A8300BF0C37BD4680BC704702
:103B000080B483B000AF78600B46FB70FB78002B6D
:103B100008D07B689B8A9BB243F020039AB27B68F3
:103B20009A8207E07B689B8A9BB223F020039AB2BB
:103B30007B689A8200BF0C37BD4680BC704700BFCF
:103B400080B483B000AF78600B46FB70FB78002B2D
:103B500008D07B689B8A9BB243F010039AB27B68C3
:103B60009A8207E07B689B8A9BB223F010039AB28B
:103B70007B689A8200BF0C37BD4680BC704700BF8F
:103B800080B483B000AF78600B46FB70FB78002BED
:103B900008D07B689B8A9BB243F008039AB27B688B
:103BA0009A8207E07B689B8A9BB223F008039AB253
:103BB0007B689A8200BF0C37BD4680BC704700BF4F
:103BC00080B483B000AF78600B46FB70FB78002BAD
:103BD0000AD07B689B899BB26FEA43436FEA5343E9
:103BE0009AB27B689A8107E07B689B899BB2C3F39A
:103BF0000E039AB27B689A8100BF0C37BD4680BC29
:103C0000704700BF80B483B000AF78600B46FB7094
:103C1000FB78002B08D07B689B8A9BB243F400633F
:103C20009AB27B689A8207E07B689B8A9BB223F4F6
:103C300000639AB27B689A8200BF0C37BD4680BC95
:103C4000704700BF80B483B000AF78600B467B80C4
:103C50007B689B8A9BB223F004039AB27B689A82AA
:103C60007B689B8A9AB27B8813439AB27B689A825C
:103C700000BF0C37BD4680BC704700BF80B483B026
:103C800000AF78600B46FB70FB78002B08D07B6898
:103C90009B8A9BB243F002039AB27B689A8207E048
:103CA0007B689B8A9BB223F002039AB27B689A825C
:103CB00000BF0C37BD4680BC704700BF80B485B0E4
:103CC00000AF78600B467B800023FB737B681B880A
:103CD0009AB27B8813409BB2002B02D00123FB7366
:103CE00001E00023FB73FB7B18461437BD4680BC04
:103CF000704700BF80B483B000AF78600B467B8014
:103D00007B88DB439AB27B681A8000BF0C37BD46C4
:103D100080BC704780B487B000AF78600B467B8072
:103D20000023FB6000237B610023BB600023FB7446
:103D30007B88DBB25B09DBB2BB607B8803F01F03CF
:103D40007B6101227B6902FA03F37B61BB68012B73
:103D500007D17B689B899BB21A467B6913407B61C4
:103D600011E0BB68022B07D17B681B8A9BB21A4605
:103D70007B6913407B6106E07B689B8A9BB21A4695
:103D80007B6913407B617B881B0A9BB2FB6001222D
:103D9000FB6802FA03F3FB607B681B889BB21A4640
:103DA000FB681340FB607B69002B05D0FB68002B90
:103DB00002D00123FB7401E00023FB74FB7C184656
:103DC0001C37BD4680BC704780B485B000AF7860BA
:103DD0000B467B800023FB810023BB817B881B0A71
:103DE000FB81FB89012202FA03F3BB81BB89DB4320
:103DF0009AB27B681A8000BF1437BD4680BC7047FA
:103E000080B483B000AF0346FB7100BF0C37BD46E2
:103E100080BC704780B483B000AF78600B46FB7005
:103E20007B68FA781A70012318460C37BD4680BCAF
:103E3000704700BF80B485B000AF78603960002360
:103E4000FB600AE07B685A1C7A603A68511C396052
:103E500012781A70FB680133FB603B681B78002BFB
:103E6000F0D1FB6818461437BD4680BC704700BFD0
:103E700080B586B000AFF8607A603B600B46FB729D
:103E800000237B617B68013B7B603B68092B1DD96C
:103E90003B681D4AA2FB0323DB08F97A7A68F868BD
:103EA000FFF7E6FF78617B69FA681344FB6010E076
:103EB000FB7A1946F868FFF7ADFFFB680133FB603A
:103EC0007B6901337B617B68013B7B607B68002BF6
:103ED000EEDC39680C4BA3FB0123DA0813469B0088
:103EE00013445B00CA1AD3B23033DBB21946F86808
:103EF000FFF790FF02467B6913447B617B6918469C
:103F00001837BD4680BD00BFCDCCCCCC80B586B0C7
:103F100000AFF8607A603B600B46FB7200237B6168
:103F20003B68002B03DA3B685B423B6101E03B6886
:103F30003B617B68013B7B603B69092B1FD93B6878
:103F4000002B0CDA3B692E4AA2FB0323DB085B4201
:103F5000F97A7A68F868FFF7D9FF78610AE03B6977
:103F6000274AA2FB0323DB08F97A7A68F868FFF78F
:103F7000CDFF78617B69FA681344FB6025E03B68FC
:103F8000002B11DA7B68013B7B600DE0FB7A194660
:103F9000F868FFF73FFFFB680133FB607B69013383
:103FA0007B617B68013B7B607B68002BEEDC3B68C0
:103FB000002B0ADA2D21F868FFF72CFF02467B69F7
:103FC00013447B61FB680133FB6039690C4BA3FB35
:103FD0000123DA0813469B0013445B00CA1AD3B2CC
:103FE0003033DBB21946F868FFF714FF02467B69ED
:103FF00013447B617B6918461837BD4680BD00BFFE
:10400000CDCCCCCC80B588B002AFF8607A601A46CF
:104010000B46FB721346BB7200237B617B68013B3E
:104020007B603B6A1B09002B20D03B6A1B09BA7AD4
:10403000F97A009313467A68F868FFF7E3FF0246BF
:104040007B6913447B617B69FA681344FB6010E071
:10405000FB7A1946F868FFF7DDFEFB680133FB6069
:104060007B6901337B617B68013B7B607B68002B54
:10407000EEDC3B6A03F00F03092B0BD83B6ADBB283
:1040800003F00F03DBB23033DBB21946F868FFF7F9
:10409000C1FE19E0BB7A002B0BD03B6ADBB203F008
:1040A0000F03DBB23733DBB21946F868FFF7B2FE15
:1040B0000AE03B6ADBB203F00F03DBB25733DBB23B
:1040C0001946F868FFF7A6FE7B6901337B617B69BF
:1040D00018461837BD4680BD80B58AB002AFF8607B
:1040E000B9607A603B600023BB6100237B61FB68A1
:1040F000002B00F0FC80FB6800221A70F7E07B6860
:104100001B78252B0BD0FB685A1CFA607A68511C6F
:10411000796012781A707B6901337B61E7E07B6814
:1041200001331B78252B0BD1FB685A1CFA60252222
:104130001A707B6802337B607B6901337B61D6E058
:104140002023FB770023BB777B6801337B607B6890
:104150001B78302B14D13023FB777B6801337B60D5
:104160000EE0BB7F1A46920013445B00DAB27B6814
:104170001B781344DBB2303BBB777B6801337B6039
:104180007B681B782F2B03D97B681B78392BE8D9E8
:10419000BA7F7B6913441A46BB689A4205D9BB684B
:1041A000DAB27B69DBB2D31ABB777B681B78583BEA
:1041B000202B00F28E8001A252F823F08D420008DD
:1041C000D3420008D3420008D3420008D34200087B
:1041D000D3420008D3420008D3420008D34200086B
:1041E000D3420008D3420008BD4200084142000803
:1041F000D3420008D3420008D3420008D34200084B
:1042000041420008D3420008D3420008D3420008CC
:10421000D3420008D3420008D3420008D34200082A
:10422000D3420008D3420008A9420008D342000844
:1042300059420008D3420008D342000871420008E6
:10424000B87F3B681A1D3A601B68F97F0246F86820
:10425000FFF75CFEB8613FE0B87F3B681A1D3A602B
:104260001B68F97F0246F868FFF702FEB86133E089
:10427000B87F3B681A1D3A601B68F97F00930023E2
:104280000246F868FFF7BEFEB86125E0B87F3B68DC
:104290001A1D3A601B68F97F009301230246F868F3
:1042A000FFF7B0FEB86117E03B681A1D3A601B6863
:1042B0001946F868FFF7BEFDB8610DE03B681A1DAE
:1042C0003A601B68DBB21946F868FFF7A3FDB861D6
:1042D00002E04FF0FF3325E07B6801337B60BB6970
:1042E000FA681344FB607A69BB6913447B617B689D
:1042F0001B78002B04D07A69BB689A42FFF4FFAEAA
:104300007A69BB689A4203D2FB6800221A7008E0FF
:10431000FB68013BFB60FB6800221A707B69013B74
:104320007B617B6918462037BD4680BD0CB480B5E3
:1043300084B000AF7860396007F11C03BB60BB68D4
:10434000BA6939687868FFF7C7FEF860FB681846F5
:104350001037BD46BDE8804002B0704780B584B0DC
:1043600000AFF860B9607A607B68BA686421F86869
:10437000FFF7B2FE034618461037BD4680BD00BFAA
:10438000B0B5A6B000AFF860B9607A60144B07F121
:1043900010041D460FCD0FC40FCD0FC42B68236032
:1043A00007F134037A68B9681846FFF7D7FF034668
:1043B000632B09DD0B4B1B68DA6807F1100311460C
:1043C000184600F097F8FEE707F13403F96818463D
:1043D00000F090F8034618469837BD46B0BD00BFC0
:1043E000BC5000085004002080B582B000AF786057
:1043F0003960064B1B689B683A6879681846FFF776
:10440000BFFF034618460837BD4680BD5004002054
:104410000EB480B585B000AF786007F12003BB60B3
:10442000BA68F9697868FFF7ABFFF860FB6818466F
:104430001437BD46BDE8804003B070470FB480B567
:1044400082B000AF07F114033B6039683869FFF7A9
:10445000CBFF78607B6818460837BD46BDE88040D2
:1044600004B070470EB480B585B000AF786007F136
:104470002003BB60BA68F9697868FFF76FFFF860DE
:10448000FB6818461437BD46BDE8804003B070474E
:1044900080B582B000AF7860054B1B689B681946F9
:1044A000786800F027F8034618460837BD4680BDF7
:1044B0005004002080B582B000AF786039600C4BAA
:1044C0001B689A683B689A4205D0094B1B68DA68FA
:1044D0003B689A4206D17B68DBB21846FFF790FC36
:1044E0007B6801E04FF0FF3318460837BD4680BDBA
:1044F0005004002080B584B000AF7860396000239C
:10450000FB6012E07B681B7839681846FFF7D2FF22
:104510000346B3F1FF3F02D14FF0FF330AE0FB68DF
:104520000133FB607B6801337B607B681B78002B69
:10453000E8D1FB6818461037BD4680BD80B582B013
:1045400000AF114B7B60114B3B6007E03B681A1DCD
:104550003A607A68111D796012681A603B680C4AEB
:104560009342F3D30D480E494FF000028842B8BF82
:1045700040F8042BFADBFBF7C9FD00F0BDFC00BFDF
:104580000837BD4680BD00BFE55000080000002090
:104590005404002080B400AFFEE700005404002063
:1045A0006804002080B582B000AF78607B682F4A35
:1045B000934208D101210420FCF7D8F900210420FE
:1045C000FCF7D4F94EE07B68294A934208D10121D7
:1045D0000820FCF7CBF900210820FCF7C7F941E0DF
:1045E0007B68244A934208D101211020FCF7BEF9D0
:1045F00000211020FCF7BAF934E07B681E4A934290
:1046000008D101212020FCF7B1F900212020FCF77E
:10461000ADF927E07B68194A934208D10121402077
:10462000FCF7A4F900214020FCF7A0F91AE07B6810
:10463000134A934208D101218020FCF797F9002109
:104640008020FCF793F90DE07B680E4A934209D174
:1046500001214FF48070FCF789F900214FF480703C
:10466000FCF784F900BF0837BD4680BD0008014053
:10467000000C0140001001400014014000180140EE
:10468000001C01400020014080B500AF0121012045
:10469000FCF76CF900210120FCF768F900BF80BD30
:1046A00080B489B000AF786039600023FB610023DB
:1046B0003B610023BB610023FB6000237B6100237F
:1046C000BB603B68DB7803F00F03FB613B68DB7882
:1046D00003F01003002B05D03B689B781A46FB695A
:1046E0001343FB613B681B88DBB2002B44D07B6823
:1046F0001B687B610023BB6138E00122BB6902FAC1
:1047000003F3FB603B681B881A46FB6813403B6160
:104710003A69FB689A4226D1BB699B00FB600F2275
:10472000FB6802FA03F3BB60BB68DB437A691340A2
:104730007B61FA69FB6802FA03F37A6913437B61D0
:104740003B68DB78282B05D10122BB699A407B6846
:104750005A6108E03B68DB78482B04D10122BB6931
:104760009A407B681A61BB690133BB61BB69072B47
:10477000C3D97B687A691A603B681B88FF2B46D9CE
:104780007B685B687B610023BB613AE0BB690833EF
:10479000012202FA03F3FB603B681B881A46FB68A0
:1047A00013403B613A69FB689A4227D1BB699B0081
:1047B000FB600F22FB6802FA03F3BB60BB68DB43BC
:1047C0007A6913407B61FA69FB6802FA03F37A693C
:1047D00013437B613B68DB78282B05D1BB69083329
:1047E00001229A407B685A613B68DB78482B05D1EF
:1047F000BB69083301229A407B681A61BB690133A7
:10480000BB61BB69072BC1D97B687A695A6000BF5D
:104810002437BD4680BC704780B483B000AF786059
:104820007B684FF6FF721A807B6802229A707B6861
:104830000422DA7000BF0C37BD4680BC704700BF51
:1048400080B485B000AF78600B467B800023FB739B
:104850007B689A687B881340002B02D00123FB738E
:1048600001E00023FB73FB7B18461437BD4680BC78
:10487000704700BF80B483B000AF78607B689B68EE
:104880009BB218460C37BD4680BC704780B485B0DB
:1048900000AF78600B467B800023FB737B68DA688F
:1048A0007B881340002B02D00123FB7301E000231F
:1048B000FB73FB7B18461437BD4680BC704700BFB6
:1048C00080B483B000AF78607B68DB689BB2184629
:1048D0000C37BD4680BC704780B483B000AF7860B1
:1048E0000B467B807A887B681A6100BF0C37BD4617
:1048F00080BC704780B483B000AF78600B467B808B
:104900007A887B685A6100BF0C37BD4680BC70470F
:1049100080B483B000AF78600B467B8013467B7019
:104920007B78002B03D07A887B681A6102E07A8852
:104930007B685A6100BF0C37BD4680BC704700BF22
:1049400080B483B000AF78600B467B807A887B6848
:10495000DA6000BF0C37BD4680BC704780B485B0BC
:1049600000AF78600B467B804FF48033FB607B8820
:10497000FA681343FB607B68FA689A617A887B68FF
:104980009A617B68FA689A617B689B69FB607B68C7
:104990009B69FB6000BF1437BD4680BC704700BFF9
:1049A00080B485B000AF03460A46FB711346BB7165
:1049B0000023FB600C4B1B68FB60FA684FF68073AA
:1049C0001340FB60FB791B01FA681343FB60BB7962
:1049D000FA681343FB60044AFB68136000BF143796
:1049E000BD4680BC704700BF0000014080B483B06A
:1049F00000AF0346FB71044AFB79136000BF0C371C
:104A0000BD4680BC704700BF1C00204280B487B008
:104A100000AF78600B46FB7000233B610023FB6016
:104A200000237B610023BB607B68002B03DA2E4BE5
:104A3000DB697B6102E02C4B5B687B617B681B0C54
:104A400003F00F03BB607B689BB23B617B6803F4A0
:104A50004013B3F5401F0AD17B6923F070637B617B
:104A6000214A214B5B6823F07063536021E07B682F
:104A700003F48013002B0ED00322BB6802FA03F369
:104A8000FB60FB68DB437A6913407B617B6943F021
:104A900070637B610DE07B685B0D1B013A6902FA74
:104AA00003F3DB437A6913407B617B6943F07063F6
:104AB0007B61FB78002B08D07B685B0D1B013A699A
:104AC00002FA03F37A6913437B617B68002B03DAF4
:104AD000054A7B69D36102E0034A7B69536000BFEA
:104AE0001C37BD4680BC70470000014090B484B0C4
:104AF00000AF03460A46FB711346BB710023FB60FF
:104B0000BB7903F003039B000F2202FA03F3FB605F
:104B10001649BB799B08DBB21846144ABB799B083F
:104B2000DBB2023352F82320FB68DB431A40831CBC
:104B300041F823200D48BB799B08DBB21C460B4A89
:104B4000BB799B08DBB2023352F82320F979BB7999
:104B500003F003039B0001FA03F31A43A31C40F87C
:104B6000232000BF1037BD4690BC704700000140B5
:104B700080B483B000AF7860034A7B68136000BFE5
:104B80000C37BD4680BC7047DC00204280B586B043
:104B900000AF012144F20400FBF7ACFE25233B7576
:104BA00000237B750023BB750123FB7507F11403FC
:104BB0001846FDF7D5FE4FF400733B821823FB74B3
:104BC0000323BB7407F1100319461448FFF768FD6F
:104BD0004FF480633B820423FB7407F110031946F2
:104BE0000E48FFF75DFD4FF4E1333B600023BB80CF
:104BF0000023FB8000233B810023BB810C237B81AE
:104C00003B4619460648FEF7D3FC01210448FEF74F
:104C1000E9FD00BF1837BD4680BD00BF0008014058
:104C20000038014080B582B000AF7860396010E094
:104C30007B685A1C7A601B789BB219460948FEF7BC
:104C4000F1FE00BF40210748FFF738F80346002B6C
:104C5000F8D03B685A1E3A60002BE9D100BF0837F4
:104C6000BD4680BD0038014080B584B000AF78609B
:104C7000786800F0F5F9F860F9687868FFF7D2FF16
:104C800000BF1037BD4680BD80B582B000AFFBF7D6
:104C900063FB4FF48030FBF78DFBFBF7B9FB03465A
:104CA000FB71FB79012B23D10020FBF75FFC002077
:104CB000FBF794FC4FF48060FBF774FC4FF4E011B9
:104CC0004FF48030FBF7FAFB0120FBF715FC00BF27
:104CD0003920FBF7B7FE0346002BF9D00220FBF783
:104CE0001BFC00BFFBF734FC0346082BFAD100E0A5
:104CF000FEE70837BD4680BD80B58EB000AF01210C
:104D00001D48FDF705FC0346002B30D01B4B1B68EC
:104D10005B2B10D01A48FEF781F903467B63194BD1
:104D20001A687B6B1344174A1360144B1B680133DA
:104D3000124A136012E000F0AFF83B463222002125
:104D4000184600F03FF90F4B1A683B460E491846CB
:104D5000FFF788FB3B461846FFF786FF0121064810
:104D6000FDF700FC094B1B680133084A136000BFC4
:104D70003837BD4680BD00BF000800405C040020FD
:104D80000024014058040020E05000086004002086
:104D900080B500AF01210A48FDF7BAFB0346002B9E
:104DA0000BD0084B00221A60074B00221A6000F05B
:104DB00041F801210248FDF7D5FB00BF80BD00BFCF
:104DC000000400405C0400205804002080B584B03A
:104DD00000AF01210220FBF7ABFD3B1D1846FCF79D
:104DE0000FFB0023FB804FF4E153BB8041F288337B
:104DF0003B813B1D19460E48FBF7ACFF0122012108
:104E00000B48FCF7B5FB01210948FCF76BFB1D23A0
:104E10003B7000237B700023BB700123FB703B467B
:104E20001846FDF79DFD00BF1037BD4680BD00BF91
:104E30000004004080B584B000AF01210420FBF7DE
:104E400077FD3B1D1846FCF7DBFA0023FB804FF48F
:104E5000E153BB8032233B813B1D19460D48FBF7D4
:104E600079FF012201210B48FCF782FB012109484F
:104E7000FCF738FB1E233B7000237B700023BB70C4
:104E80000123FB703B461846FDF76AFD00BF103753
:104E9000BD4680BD0008004080B500AF0022012162
:104EA0000448FCF765FB00210248FCF71BFB00BF30
:104EB00080BD00BF0008004080B58EB000AF3B460B
:104EC00032220021184600F07DF80948FEF7A6F8C6
:104ED00003467B633B467A6B06491846FFF7C2FAE6
:104EE0003B461846FFF7C0FE00BF3837BD4680BDC1
:104EF00000240140E050000880B594B000AF07F1F5
:104F00001C0332220021184600F05CF8FFF7BCFEBB
:104F1000FFF73CFE0D212848FEF784FD0023FB71BE
:104F20000223BB803B1D19462448FFF7B9FB4FF411
:104F30000040FBF7A3FB01214FF40070FBF7DAFC04
:104F40000023BB6000233B7301237B734FF460237A
:104F50003B6100237B6101233B7603230122012176
:104F60001748FDF775FF07F1080319461448FDF7C8
:104F7000E5FD01211248FDF74FFE1148FDF7A6FEA1
:104F800000BF0F48FDF7B2FE0346002BF9D10C48D5
:104F9000FDF7C4FE00BF0A48FDF7D0FE0346002B14
:104FA000F9D101210648FDF737FE01210448FDF73C
:104FB000DDFEFFF70BFFFEE700380140000801406F
:104FC0000024014070B4840746D0541E002A41D00A
:104FD000CDB2034602E0621EE4B3144603F8015B5F
:104FE0009A07F8D1032C2ED9CDB245EA05250F2C0E
:104FF00045EA054519D9264603F11002103E0F2E49
:1050000042F8105C42F80C5C42F8085C42F8045C20
:1050100002F11002F2D8A4F1100222F00F0204F003
:105020000F041032032C13440DD91E462246043AB5
:10503000032A46F8045BFAD8221F22F00302043246
:10504000134404F003042CB1C9B21C4403F8011B3F
:10505000A342FBD170BC704714460346C2E700BFB1
:1050600020F0030110F00300C0F1000051F8043BF0
:1050700000F1040C4FEACC0C6FF000021CBF22FAC6
:105080000CF213434FF0010C4CEA0C2C4CEA0C4C84
:10509000A3EB0C0222EA030212EACC1204BF51F87D
:1050A000043B0430F4D0C2F1000102EA0102B2FA7A
:1050B00082F2C2F11F0200EBD20070477374646980
:1050C0006F2E633A20696E637265617365204D418E
:1050D000585F535452494E475F53495A450A0D0091
:0550E00025640D0A002B
:1050E50000A24A04000000000000000001020304C1
:1050F5000607080900000000010203040102030479
:105105000607080902040608000000000000000068
:105115000100000000000000000000000000000089
:10512500000000000000000000000000000000007A
:10513500000000000000000000000000000000006A
:10514500000000000000000000000000000000005A
:10515500000000000000000000000000000000004A
:04553500280000202A
:0400000508000000EF
:00000001FF
